:1000000080313128080080347E14803120007F0840
:10001000F1002100911E13282000911E13289B310E
:10002000052380312C282100111E1D282000111EBF
:100030001D289B31252380312C282100911C272845
:100040002000911C27289931C82180312C288B1A37
:100050000B1D2C289931F02171082000FF007E1023
:10006000090080313328FA01FB01DF3084000030C1
:100070008500103099311621803120308400013004
:1000800085003F30993116218031A0308400013045
:10009000850028309931162180315030840002309B
:1000A00085002030993116218031210080310320D4
:1000B0008031EF0049308400993085005F30860040
:1000C000013087000B30993110218031E6308400F7
:1000D0009A308500C8308600013087001F30993182
:1000E00010218031833084009C30850020308600D0
:1000F0000230870030309931102180312130840066
:100100009A308500A0308600023087001A3099317D
:1001100010218031FA308400923085002030860032
:10012000033087003F30993110217E1020008C3140
:10013000A52C2000ED00EB01EC016D0886000230DB
:10014000870056300106031DC7280230E900690800
:10015000F4006D089A318F2280312000EA006A088D
:10016000EC006C089831FA20803199311C218031E3
:10017000BA30F4009230F500F6019B318A238031C9
:10018000F701F70A20006C089F310D2708002000B6
:100190006D0886000230870054300106031D0829CF
:1001A0006D0A86000230870045300106031D0829CC
:1001B0006D08023E86000230870053300106031DA1
:1001C00008296D08033E860002308700543001067E
:1001D000031D08296D08043E860002308700413067
:1001E0000106031D08296D08053E860002308700C0
:1001F0004C300106031D08296D08063E86000230BA
:1002000087004C300106031D08299C312624080074
:1002100020006D0886000230870055300106031D5E
:1002200048296D0A86000230870050300106031D00
:1002300048296D08023E8600023087004C300106D6
:10024000031D48296D08033E8600023087004F30A9
:100250000106031D48296D0A8600023087004130DF
:100260000106031D48296D08023E86000230870002
:1002700044300106031D48298631C42680313130BF
:10028000F4009130F500F601F60A9B318A2308004C
:1002900020006D088600023087004D300106031DE6
:1002A000D1296D08023E86000230870054300106D5
:1002B000031D5E295D3088319020080020006D0804
:1002C000023E86000230870050300106031D6C2973
:1002D00000308A31AB22080020006D08023E860003
:1002E000023087004E300106031D7A2901308A3121
:1002F000AB22080020006D08023E86000230870015
:100300004F300106031D882902308A31AB220800D4
:1003100020006D08023E860002308700433001064F
:10032000031D962904308A31AB22080020006D0895
:10033000023E8600023087004D300106031DA429CD
:1003400003308A31AB22080020006D08023E86008F
:100350000230870053300106031DC32921006603C4
:10036000FF3A013E2000E90069082100E60066032B
:10037000031DBF292200D301D30A2100E501053066
:100380008A31AB22080020006D08023E8600023050
:10039000870044300106031D080006308A31AB2275
:1003A000080020006D0886000230870057300106E3
:1003B000031D3E2A6D0A8600023087005230010676
:1003C000031D3E2A6D08023E860002308700493038
:1003D0000106031D3E2A6D08033E86000230870099
:1003E00054300106031D3E2A6D08043E860002308B
:1003F000870045300106031D3E2A0230E9006908E6
:10040000F4006D089A318F2280312000EA006A08DA
:10041000EB000530E9006908F4006D089A318F227D
:1004200080312000EA006A08EC006C08E9006908E5
:10043000F2006B089A317222803199311C2180318F
:10044000E130F4009130F500F6019B318A238031D0
:10045000F701F70A20006B089F310D278031E93042
:10046000F4009230F500F6019B318A238031F701C8
:10047000F70A20006C089F310D27080020006D0846
:1004800086000230870052300106031D962A6D0A4D
:1004900086000230870045300106031D962A6D084C
:1004A000023E86000230870041300106031D962A75
:1004B0006D08033E86000230870044300106031DAC
:1004C000962A0230E9006908F4006D089A318F22FB
:1004D00080312000EA006A08EB006B089931542152
:1004E00080312000E9006908EC0099311C2180313D
:1004F0000730F4009230F500F6019B318A238031F9
:10050000F701F70A20006B089F310D278031E93091
:10051000F4009230F500F6019B318A238031F70117
:10052000F70A20006C089F310D27080020006D0895
:1005300086000230870049300106031DEC2A6D0A4F
:1005400086000230870032300106031DEC2A6D0858
:10055000023E86000230870043300106031DEC2A6C
:100560006D08023EF6000230F7006808FF3EE90021
:100570006908F8001030EA006A08F9009E31832605
:10058000803199311C21803106302000E900690852
:10059000F7001030EA006A08F800A8309E313E26C5
:1005A000803124302000E90069082300AE00993131
:1005B0001C2180314930F4009130F500F601F60A33
:1005C0009B318A238031A830F4000130F500F60118
:1005D000F60A9B318A23080020006D08860002304D
:1005E000870052300106031D092B6D0A8600023078
:1005F000870054300106031D092B6D08023E86005A
:100600000230870043300106031D092B9331EA2392
:10061000080020006D088600023087005330010674
:10062000031D632B6D0A86000230870053300106DC
:10063000031D632B6D08023E86000230870049309F
:100640000106031D632B6D08033E86000230870000
:1006500044300106031D632B6D08023E8600023004
:1006600087008101810A1130E9006D08033E860090
:1006700002308700690881006808FB3EE9006D08C8
:10068000043E860002308700690881006D08023E42
:10069000F6000230F7006808FF3EE9006908F8003C
:1006A0001030EA006A08F9009E31832680319931C2
:1006B0001C2180319530F4009230F500F601F60AE5
:1006C0009B318A23080020006D08860002308700D5
:1006D00050300106031DE12B6D0A860002308700B1
:1006E00041300106031DE12B6D08023E86000230F9
:1006F000870053300106031DE12B6D08033E860081
:100700000230870053300106031DE12B6D08043EC3
:1007100086000230870057300106031DE12B6D086B
:10072000053E8600023087004F300106031DE12B95
:100730006D08063E86000230870052300106031D18
:10074000E12B6D08073E8600023087004430010629
:10075000031DE12B6D08063E8600023087008101F3
:10076000810A3130E9006D08073E860002308700BB
:10077000690881006808F73EE9006D08083E8600B8
:1007800002308700690881006D08063EF6000230DD
:10079000F7006808FB3EE9006908F8001030EA003D
:1007A0006A08F9009E318326803199311C218031FD
:1007B0002B30F4009230F500F601F60A9B318A23C3
:1007C000080020006D0886000230870043300106D3
:1007D000031D472C6D0A8600023087004830010651
:1007E000031D472C6D08023E8600023087004B3007
:1007F0000106031D472C6D08033E8600023087006A
:1008000041300106031D472C6D08043E860002306E
:10081000870050300106031D472C6D08860002300A
:1008200087008101810AA130E9006D0A860002304B
:100830008700690881006D08023E8600023087004B
:100840008101810A6D08033E860002308700810124
:10085000810A6D08F6000230F7000530E9006908EA
:10086000F8001030EA006A08F9009E3183268031D2
:1008700099311C2180310030F4009030F500F601F0
:10088000F60A9B318A232100EF01EF0A08002000BD
:100890006D0886000230870043300106031DA92C35
:1008A0006D0A8600023087004E300106031DA92C18
:1008B0006D08023E86000230870043300106031DAA
:1008C000A92C6D08033E86000230870054300106D3
:1008D000031DA92C6D088600023087008101810A62
:1008E000A130E9006D0A86000230870069088100A6
:1008F0006D08023E8600023087008101810A0230C5
:10090000E9006D08033E8600023087006908810017
:100910006D08F6000230F7000530E9006908F800BC
:100920001030EA006A08F9009E318326803199313F
:100930001C2180314830F4009030F500F601F60AB1
:100940009B318A2302302000E90069082100EF0072
:10095000080020006D08860002308700463001063E
:10096000031D2A2D6D0A86000230870049300106DA
:10097000031D2A2D6D08023E860002308700443098
:100980000106031D2A2D0430E9006908F4006D08F2
:100990009A318F2280312000EA006D08043E8600E3
:1009A000023087006A0881000630E9006908F40017
:1009B0006D089A318F2280312000EA006D08053ED3
:1009C0008600023087006A0881000830E900690863
:1009D000F4006D089A318F2280312000EA006D0802
:1009E000063E8600023087006A0881006D0A860094
:1009F000023087008101810A3D30E9006D08023E26
:100A0000860002308700690881000330E9006D0824
:100A1000033E860002308700690881006D08013EB0
:100A2000F6000230F7006808E9006908F8001030A5
:100A3000EA006A08F9009E318326803199311C2131
:100A40008031AE30F4009230F500F601F60A9B31A9
:100A50008A23080020006D0886000230870052308B
:100A60000106031D832D6D0A860002308700453084
:100A70000106031D832D6D08023E860002308700AB
:100A800047300106031D832D6D0886000230870064
:100A90008101810AA130E9006D0A860002308700D9
:100AA000690881006D08023E8600023087008101DE
:100AB000810A0430E9006D08033E86000230870099
:100AC000690881006D08F6000230F7000530E90082
:100AD0006908F8001030EA006A08F9009E318326A0
:100AE000803199311C2180312430F4009030F500A0
:100AF000F601F60A9B318A2304302000E9006908D8
:100B00002100EF00080020006D08860002308700F9
:100B100041300106031DDC2D6D0A8600023087007E
:100B200044300106031DDC2D6D08023E86000230B4
:100B300087004A300106031DDC2D6D088600023057
:100B400087008101810AA130E9006D0A8600023028
:100B50008700690881006D08023E86000230870028
:100B60008101810A0830E9006D08033E86000230E9
:100B70008700690881006D08F6000230F700053033
:100B8000E9006908F8001030EA006A08F9009E31AF
:100B90008326803199311C2180316C30F4009030F3
:100BA000F500F601F60A9B318A2308302000E9009F
:100BB00069082100EF00080020006D08860002305F
:100BC000870058300106031D942E6D0A86000230FE
:100BD00087000108D03EE90069082100EE002000EE
:100BE0006D08023E8600023087000108D03EF20008
:100BF000FF3003180030F300E830F4000330F50054
:100C00009A313B22803173082200C3007208C2006F
:100C100020006D08033E8600023087000108D03EA8
:100C2000F200FF3003180030F3006430F4000030AD
:100C3000F5009A313B22803172082200C207730806
:100C4000C33D20006D08043E860002308700010885
:100C5000D03EF200FF3003180030F3000A30F400F9
:100C60000030F5009A313B22803172082200C20721
:100C70007308C33D20006D08053E860002308700E2
:100C80000108D03EE900FF3003180030EA0069088F
:100C90002200C20720006A082200C33D9331EA23E4
:100CA000803199311C218031D030F4009230F50030
:100CB000F6019B318A23803121006E082000E90073
:100CC000EA016908A0006A08A100A2019631552630
:100CD0008031A230F4009230F500F6019B318A2376
:100CE0008031220043082000A10022004208200099
:100CF000A000A201A20A9631552680315C30F40092
:100D00009230F500F601F60A9B318A232100630335
:100D1000FF3A013E2000E90069082100E3002200BB
:100D2000D101C601C701080020006D08860002300D
:100D3000870059300106031DAC2E99311C218031EA
:100D4000E630F4009030F500F601F60A9B318A2374
:100D500080318731A927080020006D088600023005
:100D600087005A300106031D080099311C2180318B
:100D70008E30F4009030F500F601F60A9B318A239C
:100D800080318831022008002000CD01A03086008B
:100D9000023087004E308400003085001A30CB00CE
:100DA00016001A00CB0BD02E22004C0803190800A5
:100DB000210062082000AD00210061082000AC0085
:100DC000210060082000AB0021005F082000AA007D
:100DD0005730CB004B08AE009631C9268631220031
:100DE00049082000AB00220048082000AA00573024
:100DF000CB004B08AC009531E22586312030200035
:100E0000CB004B08D100220057082000CB004B0834
:100E1000D200220058082000CB004B08D30022004B
:100E200059082000CB004B08D40022005A082000AB
:100E3000CB004B08D50022005B082000CB004B08FC
:100E4000D60022005C082000CB004B08D7005D30A4
:100E500088319020863122005D082000CB004B08AD
:100E6000D80022005E082000CB004B08D9002200E9
:100E700023082000CB004B08DA00220022082000C3
:100E8000CB004B08DB00220025082000CB004B08DC
:100E9000DC00220024082000CB004B08DD002200EB
:100EA00027082000CB004B08DE0022002608200087
:100EB000CB004B08DF00220029082000CB004B08A4
:100EC000E000220028082000CB004B08E1002200AF
:100ED0002B082000CB004B08E20022002A0820004B
:100EE000CB004B08E30022002D082000CB004B086C
:100EF000E40022002C082000CB004B08E500220073
:100F00002F082000CB004B08E60022002E0820000E
:100F1000CB004B08E7004E30F6000030F7001B30E6
:100F2000CB004B08F8001030CC004C08F9009E3183
:100F300083262100EE01EE0A01302200C2000030BB
:100F4000C3002100E301E30A2200D101C601C70169
:100F500008002300A801C0302000A80028082300B2
:100F6000A90002302000A80028082300AA00A83009
:100F7000F6000130F70004302000A8002808F8002F
:100F80001030A9002908F9009E31832687310230EC
:100F90002000A8002808F7001030A9002908F80050
:100FA000A8309E313E268731230028082000A80063
:100FB00028082100E700230029082000A8002808AD
:100FC0002100E8003C30F4009230F500F6019B313E
:100FD0008A238731F701F70A210067089F310D271F
:100FE00087314C30F4009230F500F6019B318A23B2
:100FF0008731F701F70A210068089F310D270800A3
:101004002000DA01A030B2003208D700DB01DB0A8D
:10101400D901D801C83086000130870037308400F8
:10102400003085001030B20016001A00B20B1628EA
:101034005B08B2003208A8005908B3003308A900BD
:101044001030B4003408AA003730B5003508AB00BE
:1010540057089531762588312000B6003608D80027
:10106400580803195128F430F4009130F500F601C2
:101074009B318A238831F701F70A200058089F31F1
:101084000D278831F70120005B089F310D27883137
:10109400F701F70A200059089F310D2788311930CC
:1010A400F4009230F500F6019B318A238831F70170
:1010B40020005B089F310D278831F701F70A0030C3
:1010C4009F310D27883120005B08B2003208A80048
:1010D4005908B3003308A9001030B4003408AA003A
:1010E4004730B5003508AB00570895310F258831D6
:1010F4002000DA0110305A0203180800F701F70A39
:101104005A08473E8600870101089F310D27883120
:1011140001302000B2003208DA077C282000AF003A
:10112400B301B201AE01AE0AB001B1019931DC21C3
:101134008831CC309C315424883144309C3154243F
:1011440088319931972188319931DC218831CC302B
:101154009C3154248831BE309C31542488319B31D5
:10116400D42388312000AC002C08B2009B31D42356
:1011740088312000AC002C08B30033080319DE28A2
:101184009931972188319931DC218831CC309C31D7
:1011940054248831BE309C31542488319B31D4236B
:1011A40088312000AC002C08B2009B31D423883154
:1011B4002000AC002C08B30033080319E6280130E2
:1011C400AC002C082200CB0520003308AC00AD0194
:1011D4002C08B0002D08B1000830B035B10D890BD2
:1011E400EF283208AC00AD012C08B0072D08B13D42
:1011F4000430B136B00C890BFB283308AC002F083F
:101204008600013087002C0881003208AC002F0AC8
:101214008600013087002C08810031082200A100DB
:10122400200030082200A000A430F4009130F50022
:10123400F6019B318A238831F230F4009230F500B4
:10124400F6019B318A238831F701200033089F314E
:101254000D278831F030F4009230F500F6019B310F
:101264008A238831F701F70A200032089F310D27BD
:10127400883120003108A1003008A000A201A20A90
:101284009631552608002000D101D201D301D401A2
:10129400C901CA010030CE000030CD000030CC00BE
:1012A4000030CB00CF01D001C701C8012300A80141
:1012B40050302000BB003B082300A9000730200069
:1012C400BB003B082300AA00A830F6000130F70059
:1012D40004302000BB003B08F8001030BC003C0880
:1012E400F9009E318326893107302000BB003B087A
:1012F400F7001030BC003C08F800A8309E313E26B0
:101304008931230029089A31C92289312000BB0080
:10131400BC013B08D1003C08D2001030D10200309F
:10132400D23B23002A089A31C92289312000BB000C
:10133400BC013B08D3003C08D4000130D302003088
:10134400D43B23002B089A31C92289312000BB00E9
:10135400BC013B08C9003C08CA000130C902003086
:10136400CA3B6D30F2000130F3005208F500510819
:10137400F4009A313B22893173082000D2007208AC
:10138400D1005408F3005308F2009D314D258931F2
:1013940073082000D4007208D30023002C089A316B
:1013A400C92289312000BB00BC01BD01BE013E0839
:1013B400CE003D08CD003C08CC003B08CB000030FB
:1013C400F5000030F4000E30F3001030F2004E0847
:1013D400F9004D08F8004C08F7004B08F6009C3162
:1013E400B324893175082000CE007408CD00730839
:1013F400CC007208CB0023002D089A31C922893110
:101404002000BB00BC013B08CF003C08D0003C30AE
:10141400F2000030F3005008F5004F08F4009A3150
:101424003B22893173082000D0007208CF002300CA
:101434002E089A31C92289312000BB00BC013B0827
:10144400C7003C08C80053085107BB005408523D6C
:10145400BC0049083B072200C80020004A083C3D64
:101464002200C90020004B08BB004C08BC004D08FA
:10147400BD004E08BE004708BF004808C000C101B7
:10148400C2014F08C3005008C400C501C601430887
:10149400BF074408C03D4508C13D4608C23D3F085A
:1014A400BB074008BC3D4108BD3D4208BE3D3E0867
:1014B4002100E20020003D082100E10020003C085A
:1014C4002100E00020003B082100DF005F0822002B
:1014D40063072000BB00210060082200643D200057
:1014E400BC00210061082200653D2000BD002100F0
:1014F40062082200663D2000BE003E082200E20091
:1015040020003D082200E10020003C082200E00009
:1015140020003B082200DF002000D50107305502DF
:101524000318A82AF701F70A5508A83E86000130D7
:10153400870001089F310D27893101302000BB004D
:101544003B08D50707305502031C942A99311C2106
:1015540008002000C4002030860003308700A0303B
:101564008400003085003F30AC0016001A00AC0B3C
:10157400B72ABD01D8308600013087002E308400A0
:10158400003085000F30AC0016001A00AC0BC62AE0
:10159400C201C3010030C1000030C0000030BF00F0
:1015A4000030BE0022001010901009302000AC0062
:1015B4002C08F70044089931B6218A31A03E8600F0
:1015C40087010108031DE92A22008F13EB2A220058
:1015D4008F1709302000AC002C08F700440899311B
:1015E400B6218A31013EA03E860087010108031D11
:1015F400FE2A22000C13002B22000C1709302000B5
:10160400AC002C08F70044089931B6218A31023E17
:10161400A03E860087010108031D132B22008C13B2
:10162400152B22008C1709302000AC002C08F70081
:1016340044089931B6218A31033EA03E86008701D1
:101644000108031D282B220010112A2B220010153B
:1016540009302000AC002C08F70044089931B62169
:101664008A31043EA03E860087010108031D3D2BFC
:1016740022000E103F2B22000E1409302000AC0073
:101684002C08F70044089931B6218A31053EA03E62
:10169400860087010108031D522B22008E10542B53
:1016A40022008E1409302000AC002C08F7004408F6
:1016B4009931B6218A31063EA03E86008701010891
:1016C400031D672B22000E11692B22000E15093011
:1016D4002000AC002C08F70044089931B6218A3167
:1016E400073EA03E860087010108031D7C2B2200D3
:1016F4008E127E2B22008E1609302000AC002C089E
:10170400F70044089931B6218A31083EA03E86008C
:1017140087010108031D912B22008D12932B2200B7
:101724008D1605302000440203189E2B0C30AC00AB
:101734002C08BD000030B02B053020004406031DEA
:10174400A92B0B30AC002C08BD00C030B02B0630E8
:1017540020004406031DB32BBD011B309831FA2031
:101764008A312100660303190800FA2BF630F400CD
:101774009230F500F6019B318A238A3199311C217C
:101784008A31052CF630F4009230F500F6019B31D5
:101794008A238A31052CF630F4009230F500F601E4
:1017A4009B318A238A31052CF630F4009230F500FF
:1017B400F6019B318A238A31052CF630F4009230ED
:1017C400F500F6019B318A238A31052CDA30F400C6
:1017D4009230F500F6019B318A238A31052CE230E0
:1017E400F4009230F500F6019B318A238A31052CEE
:1017F400200044088400073004020318052C9831A3
:101804000435003E82002000C201C30103304302BC
:10181400E830031942020318332C3D089A31072299
:101824008A317308FB007208FA007B082000AD00BF
:101834007A08AC000430AD36AC0C890B1D2C2C0896
:10184400BE072D08BF3D0030C03DC13D0130C20779
:101854000030C33D03304302E83003194202031C45
:101864000F2C0030F5000030F4000330F300E830B2
:10187400F2004108F9004008F8003F08F7003E086C
:10188400F6009F31AD278A3175082000C100740825
:10189400C0007308BF007208BE003F08FB003E088A
:1018A400FA004408031D5C2C7B082200A5007A087A
:1018B400A4009C2C20004403031D662C7B082200FA
:1018C400A3007A08A2009C2C023020004406031DC9
:1018D400712C7B082200AF007A08AE009C2C0330E8
:1018E40020004406031D7C2C7B082200AB007A08F0
:1018F400AA009C2C043020004406031D872C7B087E
:101904002200A9007A08A8009C2C05302000440677
:10191400031D922C7B082200A7007A08A6009C2CA9
:10192400063020004406031D9C2C7B082200AD00D9
:101934007A08AC007B082000A1007A08A000A2016C
:101944009631552608002000EE01EF019B31452316
:101954008C318B170B1722008F1523000D142100D7
:101964000E128E1122000E168E150F16C0309831ED
:10197400FA208C318631C4268C3122000C159C311E
:1019840026248C31F72E3C3023001906031DCE2C5F
:101994002200D001D00AF72E3E3023001906031D81
:1019A400FA2C02302200EA006A08D0004A08EA0051
:1019B4006A082000E8005030803199208C312100E1
:1019C400E401203064020318F72C6408503E8600BA
:1019D40002308700810101302200EA006A082100F8
:1019E400E40720306402031CE72C2200CA01D00162
:1019F40022005003031DF72E230019082200EA00D9
:101A04004A08503E8600023087006A08810001308F
:101A1400EA006A08CA07F72E993136218C31013A57
:101A2400031DF72E01302200EA006A082100E507B1
:101A3400651C1F2D22000C16212D22000C122000E3
:101A4400EE01EF0100306F02033003196E02031838
:101A5400462D210065082200EA00EB01EC01ED01AE
:101A64006D08BB006C08BA006B08B9006A08B800BE
:101A740001302000EE070030EF3D00306F020330EC
:101A840003196E02031C2B2D22005303031DF72E92
:101A9400FD3021006506031D9C2D00302200BB0093
:101AA4000030BA000030B9000030B8002000EE0168
:101AB400EF0100306F020A3003196E020318832D00
:101AC4000B309A3107228C3172082200EA00730825
:101AD400EB000430EB36EA0C890B6C2D6A08B8076E
:101AE4006B08B93D0030BA3DBB3D01302000EE0724
:101AF4000030EF3D00306F020A3003196E02031C00
:101B0400622D0030F5000030F4000030F3000A309C
:101B1400F20022003B08F9003A08F8003908F700FF
:101B24003808F6009F31AD278C317308FB0072082A
:101B3400FA00F72EFE3021006506031DF72E003053
:101B44002200BB000030BA000030B9000030B800F9
:101B54002000EE01EF0100306F020A3003196E021B
:101B64000318D52D0B309A3107228C3172082200CC
:101B7400EA007308EB000430EB36EA0C890BBE2D47
:101B84006A08B8076B08B93D0030BA3DBB3D013067
:101B94002000EE070030EF3D00306F020A300319D9
:101BA4006E02031CB42D0030F5000030F400003048
:101BB400F3000A30F20022003B08F9003A08F8006A
:101BC4003908F7003808F6009F31AD278C317308C7
:101BD4002200C1007208C000DA30F4009230F5002F
:101BE400F6019B318A238C31220041087B02031DBC
:101BF400FD2D40087A0203180D2E7A09EA007B09AC
:101C0400EB00EA0A0319EB0A40086A072000A00067
:101C1400220041081B2E22004009EA004109EB0082
:101C2400EA0A0319EB0A7A086A072000A0007B0875
:101C340022006B3D2000A100A201A20A9631552684
:101C44008C312100E6012200D301D30AF72E0130A2
:101C54002100DF070030E03D0030E13D0030E23D8F
:101C6400083022008F064B08F03903193C2E40300F
:101C74008F06432E4B080F390319422E0F17432E9C
:101C84000F1321006208031D4F2E80305F02513074
:101C9400603B0130613B031C6E2E01302200C807FB
:101CA4000030C93D00302100E2000030E100003086
:101CB400E0000030DF0080302200EA005130EB0009
:101CC4000130EC000030ED006A08DF026B08E03BF5
:101CD4006C08E13B6D08E23B2200620821006202CD
:101CE400031D842E2200610821006102031D842E3D
:101CF4002200600821006002031D842E22005F0878
:101D040021005F02031CA52E8631C4268C312100DC
:101D14005F0822006307EA00210060082200643D96
:101D2400EB00210061082200653DEC0021006208FF
:101D34002200663DED006D08E2006C08E1006B08CE
:101D4400E0006A08DF0021006303031DF72E6E081C
:101D54002200EA00EB016A08F2006B08F300053088
:101D6400F4000030F5009A313B228C3173082200D4
:101D74004702031DBF2E720846020318D12E5108D4
:101D84008A31AB228C3101302200EA006A08D10783
:101D940005305106031DD12ED1012100E30101308C
:101DA4002200C6070030C73D21006E082200EA0069
:101DB400EB016A08F2006B08F3000530F400003010
:101DC400F5009A313B228C31220042087207EC0064
:101DD4004308733DED006D084702031DF32E6C08A4
:101DE4004602031CF72EC601C70199312D218C31FF
:101DF400013A0319C52C2100660303190E2D9931EC
:101E040024218C31013A0319292E20008F1AF72E30
:101E140022005608031D172F7930F4009230F50084
:101E2400F601F60A9B318A238C312200D601D60AA8
:101E34002300A801A0302200EA006A082300A900B8
:101E440002302200EA006A082300AA00A830F60043
:101E54000130F70004302200EA006A08F80010306C
:101E6400EB006B08F9009E3183268C31023022008E
:101E7400EA006A08F7001030EB006B08F800A8309D
:101E84009E313E268C31230028082200EA006A088D
:101E94002100E700230029082200EA006A08210043
:101EA400E8007730F4009130F500F6019B318A2385
:101EB4008C31F701F70A210067089F310D278C3117
:101EC4001830F4009130F500F6019B318A238C31EF
:101ED400F701F70A210068089F310D278C31803003
:101EE40021006F06031D802FCB30F4009030F500E5
:101EF400F601F60A9B318A238C31AB2F21006F0344
:101F0400031D8B2F6708031DAB2F2200CC01CC0AC5
:101F1400AB2F023021006F060319AB2F04306F067C
:101F24000319AB2F08306F06031DAB2F6803031D85
:101F3400AB2FB930F4009130F500F601F60A9B316D
:101F44008A238C31893145218C312100EF01220013
:101F5400D60199311C218C3121006708031DBF2F44
:101F6400C530F4009230F500F601F60A9B318A235D
:101F74008C312200CC01CC0ACE2F6030F400913099
:101F8400F500F6019B318A238C31F701F70A210011
:101F940067089F310D278C312100681CDD2FB93073
:101FA400F4009130F500F601F60A9B318A238C3156
:101FB400893145218C312100E81CFB2FFF30F400CE
:101FC4009030F500F601F60A9B318A238C31973163
:101FD40062278C312100EE01EE0A01302200C2009A
:101FE4000030C3002100E301E30A2200D101C6014D
:101FF400C7012200D6012100EF01F72E43344834F3
:10200400453443344B342034413450342C3420345C
:102014006E3465346534643420347734613469341F
:10202400743469346E34673420346634653465340A
:1020340064346234613463346B342E342E342E347D
:1020440024340034523445344734493453345434FA
:10205400453452342C3420346E346534653464345D
:102064002034773461346934743469346E346734B9
:1020740020346634653465346434623461346334E2
:102084006B342E342E342E342434003453344534FB
:102094005434203443344E34433454342C342034B4
:1020A4006E3465346534643420347734613469348F
:1020B400743469346E34673420346634653465347A
:1020C40064346234613463346B342E342E342E34ED
:1020D40024340034413464346A34753473347434CD
:1020E4002C3420346E3465346534643420347734CD
:1020F40061346934743469346E346734203466343A
:102104006534653464346234613463346B342E343E
:102114002E342E34243400345434653473347434FB
:102124002034493432344334203445344534503433
:1021340052344F344D342034573472346934743447
:102144006534203452346534613464342E342E348E
:102154002E3420342434003441346B3475346234E6
:1021640069346334203453347934733474346534C7
:102174006D342034563465347234733469346F34B6
:102184006E343A34203431342E34313430342434FF
:10219400003443346834653463346B342034463457
:1021A40069347234733474342034743469346D345F
:1021B40065342034413444344F3420345434453469
:1021C4005334543424340034543465347334743400
:1021D400203449343234433420345734723469342B
:1021E400743465342034413464347234753469345D
:1021F4006E346F342034243400344E344534453442
:10220400443420344334483441344E344734453420
:102214002034533441344D3450344C344534203418
:102224005234413454344534243400345334523415
:102234005F3430347834413431345F34413444349D
:102244004F345F34523465347134753465347334C7
:10225400743420343D3430347834243400346634D7
:102264006F347234203454346534733474343A34EF
:102274002034753470346C346F34613464342034F5
:102284006434613474346134213424340034493482
:1022940032344334203453347434723469346E34F5
:1022A4006734203474346F342034413472346434E9
:1022B400753469346E346F34243400345234453404
:1022C400533455344C34543420344E3447342C3441
:1022D40020344534723472346F34723420343D34D3
:1022E40020343034783424340034533452345F345A
:1022F40030347834413430345F34413444344F34EE
:102304005F344534723472346F34723420343D3463
:102314003034783424340034533465347434203401
:102324004534723472346F347234203446346C342D
:102334006134673420343D342034493432344334F6
:10234400243400344D346534733475347234653454
:102354002034543465346D3470342034443441347E
:102364005434413420343D342034243400344E3445
:102374004534453444342034413444344A342034DC
:10238400523454344334203443344C344F3443347F
:102394004B34243400344134753474346F34203471
:1023A400723475346E342034733465346C3466346A
:1023B400203474346534733474342434003457341E
:1023C40072346934743465342034453445345034BB
:1023D40052344F344D3420344134643472343A34FA
:1023E400243400344534723472346F3472342034FB
:1023F4004134643464347234653473347334203453
:102404003D34303478342434003452346534613407
:102414006434203445344534503452344F344D34CC
:1024240020344134643472343A3424340034523421
:102434006534613464342034413464346434723433
:1024440065347334733420343D3430347834243474
:1024540000345334453454342034503461347334A8
:10246400733477346F347234643420344F344B34DF
:102474002434003443346834653463346B34203496
:10248400303478344334303420343D343034783488
:102494002434003443346834653463346B34203476
:1024A400303478344334313420343D343034783467
:1024B4002434003454346534733474342034523442
:1024C4006534613464342034503448342034243442
:1024D400003443346834653463346B342034523408
:1024E4005434433420343D342034243400346534AB
:1024F400783449344E345434203465346E34613481
:1025040062346C34653424340034433468346534C0
:1025140063346B342034463469346E346934733430
:10252400683424340034533445345434203453341C
:1025340053344934443420344F344B342434003439
:102544002C342034543469346D34653420343D34AF
:102554002034203424340034533445345434203467
:1025640046344934443420344F344B342434003416
:102574005334653474342034443441344334203483
:102584003D342434003452344534533455344C34BB
:10259400543420344F344B34243400344C346F34AA
:1025A4006F34703420343D342034203424340034E7
:1025B40054344434533420343D34203424340034EB
:1025C40044344F3420343D342034243400344434EF
:1025D4006134743461343A34243400342C34203477
:0E25E40030347834243400342C342434003461
:1025F4000134013400340034003400340034003435
:102604000134013400340134003400340034003423
:102614000034013401340034003401340034003413
:102624000034003401340134003400340034013403
:1026340000340034003401340134003400340034F4
:1026440000340134003400340134003400340034E4
:1026540000340034003401340034003400340034D5
:102664000034003400340034003401340034F30006
:10267400F6010830F2007208F400F50121000E168C
:102684008E150310F60D003020008E190130F50070
:1026940075080319452B00300E1A0130F200720838
:1026A400F60421008E119831DC20933122008E1122
:1026B4000130F4020319702B0310F60D9931042133
:1026C400933122008E159831DC20933100302000A4
:1026D4000E1A0130F2007208F604552B21000E1276
:1026E4009831DC2093319831DC2093319831DC200F
:1026F400933173080319812B22000E16832B2200B9
:102704000E129831DC20933122008E159931042168
:1027140022008E11760808001030F2000030F30019
:1027240020002708F700F8017708F4007808F5007E
:102734009F315B2793317208303E9B31662393317E
:10274400200027080F39303E9B31662393313A30FD
:102754009B31662393311030F2000030F3002000E7
:102764002808F700F8017708F4007808F5009F318D
:102774005B2793317208303E9B31662393312000EE
:1027840028080F39303E9B31662393313A309B3110
:10279400662393311030F2000030F3002000290842
:1027A400F700F8017708F4007808F5009F315B27FB
:1027B40093317208303E9B316623933120002908FF
:1027C4000F39303E9B316623933199311C21080027
:1027D400220049082000AB00220048082000AA007B
:1027E4005730CB004B08AC009531E22593312100E2
:1027F40062082000AD00210061082000AC00210027
:1028040060082000AB0021005F082000AA005730B8
:10281400CB004B08AE009631C926933199311C2167
:1028240093316B30F4009230F500F6019B318A232A
:102834009331573086000130870024308400003003
:102844008500403F803F413F813F423F823F433FBD
:10285400833F443F843F453F853F9431AA249331CD
:102864005730860001308700243084000030850012
:10287400403F803F413F813F423F823F433F833F50
:10288400443F843F453F853F93318E230800230016
:10289400A801C0302000A80028082300A9000230A5
:1028A4002000A80028082300AA00A830F600013060
:1028B400F70004302000A8002808F8001030A90010
:1028C4002908F9009E318326943102302000A800A3
:1028D4002808F7001030A9002908F800A8309E3114
:1028E4003E2694313C30F4009230F500F6019B31E1
:1028F4008A239431F701F70A230028089F310D2712
:1029040094314C30F4009230F500F6019B318A2367
:102914009431F701F70A230029089F310D279431D8
:10292400733023002806031D9B2C1030290603193D
:10293400080010302000A80028082200CB008E30A8
:10294400F4009130F500F601F60A9B318A23080061
:1029540032309B316623943130309B31662394317D
:102964001030F2000030F30020002408F700F801D2
:102974007708F4007808F5009F315B2794317208DA
:10298400303E9B3166239431200024080F39303EB9
:102994009B31662394312D309B3166239431103062
:1029A400F2000030F30020002508F700F801770852
:1029B400F4007808F5009F315B2794317208303EAB
:1029C4009B3166239431200025080F39303E9B311A
:1029D400662394312D309B31662394311030F200FC
:1029E4000030F30020002608F700F8017708F4000F
:1029F4007808F5009F315B2794317208303E9B3193
:102A040066239431200026080F39303E9B3166231B
:102A1400943120309B31662308002000AF000A3037
:102A2400AC002C08B000B101AE01AE0A01302000A8
:102A3400B00203196F2D99316C21953120002F08B4
:102A4400FE399D31BD259531003A031D182D200016
:102A540028089D31BD259531003A031D182D20000D
:102A640029089D31BD259531003A031D182D993152
:102A74006C21953120002F0801389D31BD259531F9
:102A8400003A031D182D20003108013EAC0000302F
:102A940003180130AD002A082C062D04031D552D02
:102AA400AE01AE0A562DAE012E089331392395316D
:102AB4002000AC0031082B07AD002D0886008701EB
:102AC4002C0881000130AC002C08B1072A0831021F
:102AD400031C452D993179219531F701F70A20001E
:102AE40030089F310D2708002000AE000A30AC00EA
:102AF4002C08AF00B101B00199316C21953120004F
:102B04002E08FE399D31BD259531003A031D8C2DCB
:102B140001308D2D00302000AC002C08B1003108AC
:102B24000319CF2D28089D31BD259531003A031D89
:102B34009D2D01309E2D00302000AC002C08B100EA
:102B440031080319CF2D29089D31BD259531003A4F
:102B5400031DAE2D0130AF2D00302000AC002C0839
:102B6400B10031080319CF2D30082B07AC002C0815
:102B74008600870101089D31BD2595312000AD00F7
:102B84002D08B1000130AC002C08B0073108031D3A
:102B9400CF2D2A083002031CB62D993179219531A5
:102BA40001302000AF022F080319DB2D3103031974
:102BB4007E2DF701F70A2F089F310D2700300800FA
:102BC40020308600023087002F30840000308500DA
:102BD40018302000AD0016001A00AD0BED2DCA010F
:102BE400C701C801C9014A352F3E86008701403F0D
:102BF400AD00413FAE002E082B02031D032E2D080D
:102C04002A02031C232E4A352F3E86008701403FAB
:102C1400AD00413FAE002D08AA022E08AB3B0130A7
:102C2400AD002D08CA070C304A02031C1E2E0130C9
:102C3400AD002D08C907CA010130AD002D08C80731
:102C4400F52D2A08AD002D08C7002C08023E860089
:102C5400013087004708013E9D3119259531C03F59
:102C64002000AD002C08023E8600013087002D08AC
:102C740081004808013E9D31192595312000AD00A1
:102C84002C0A8600013087002D0881004908103E77
:102C94009D3119252000AD002C08860001308700E5
:102CA4002D08810008002000A501A6014130A300E1
:102CB4002308AB002108A8002008A7001030A900B1
:102CC4002730AA00A401A501A60100302602043081
:102CD400031925020318B92E2A08F3002908F20063
:102CE4002808F5002708F4009C31E5249631720881
:102CF4002000A3002308AB002A08F3002908F200EF
:102D04002808F5002708F4009B31FA23963173084C
:102D14002000A8007208A7002408031D962E2B0883
:102D2400031D962E20309A2EA401A40A2B08303EAF
:102D34009B31662396310A30F2000030F300200004
:102D44002A08F5002908F4009C31E524963173081B
:102D54002000AA007208A9000130A5070030A63D92
:102D640000302602043003192502031C6E2E2708A6
:102D7400A3002308AB002B08303E9B316623963119
:102D840020002203031D080099311C210800003093
:102D9400F5000030F4000030F3003C30F200200075
:102DA4002D08F9002C08F8002B08F7002A08F60073
:102DB4009D31FB25963172089D31192596312000ED
:102DC400AF002E08053E8600013087002F088100E1
:102DD4000030F5000030F4000030F3003C30F20025
:102DE4002D08F9002C08F8002B08F7002A08F60033
:102DF4009F31AD27963175082000AD007408AC00F2
:102E04007308AB007208AA000030F5000030F4002B
:102E14000030F3003C30F2002D08F9002C08F800D3
:102E24002B08F7002A08F6009D31FB25963172081D
:102E34009D31192596312000AF002E08043E8600EE
:102E4400013087002F0881000030F5000030F400C5
:102E54000030F3003C30F2002D08F9002C08F80093
:102E64002B08F7002A08F6009F31AD279631750824
:102E74002000AD007408AC007308AB007208AA000F
:102E84000030F5000030F4000030F3001830F20098
:102E94002D08F9002C08F8002B08F7002A08F60082
:102EA4009D31FB25963172089D3119252000AF0014
:102EB4002E08033E8600013087002F088100080099
:102EC4002300A8014A302000AC002C082300A900EC
:102ED40002302000AC002C082300AA00A830F60021
:102EE4000130F70004302000AC002C08F80010304A
:102EF400AD002D08F9009E31832697310230200061
:102F0400AC002C08F7001030AD002D08F800A830F4
:102F14009E313E2697312000B00102303002031862
:102F2400A72FF701F70A3008A83E86000130870072
:102F340001089F310D27973101302000AC002C0887
:102F4400B00702303002031C932F00302200E60049
:102F54000030E5000030E4000A30E30021005F089F
:102F6400220063072000AC00210060082200643DB9
:102F74002000AD00210061082200653D2000AE0064
:102F8400210062082200663D2000AF002F082200C5
:102F9400E20020002E082200E10020002D0822007B
:102FA400E00020002C082200DF0064082000A100BB
:102FB400220063082000A000A201A20A963155262F
:102FC4009731220060082000A10022005F08200041
:102FD400A000A201A20A963155269731210060086B
:102FE4002000A10021005F082000A000A201A20A85
:102FF40096315526973199311C2108008B31B82B15
:103004008B31C42B8B31CD2B8B31D62B8B31DF2BDA
:083014008B31E82B8B31F12B0D
:1031B80080310220080020001C1508002200CF01E1
:1031C800CF0A08002200CD01CD0A08008A3022006B
:1031D8009700080084302A009100080080302A00F7
:1031E8009300080080302A0095000800F200720859
:1031F80022009900080088302200980099010800F0
:103208008031022099318031022008007A30210073
:1032180099009A0198010800FE0012001E00FE0B9A
:1032280011290034640080010131890B1729003409
:103238000D309B31662399310A309B316623080093
:1032480022004D03031D2B29CD0101300800003059
:10325800080022004E03031D3429CE010130080066
:103268000030080022004F03031D3D29CF01013023
:10327800080000300800013021009D0003309E0046
:103288000F309F009C019B0108002C34013400344E
:1032980000342C340134003400340C340B34003442
:1032A800F2007208230091001513951315140000FD
:1032B80000002300130808007B3020009C00263003
:1032C8009B009A019110210091149831DF20080089
:1032D80022000E168E1599310421993122000E1202
:1032E8009831DC2022008E1108009831DC209931B9
:1032F80022000E129831DC20993122008E15983167
:10330800DC2022000E160800F301F4010C307402D0
:10331800031808000130F2007208F3070130F200C8
:103328007208F4078A29F301F40150307402031873
:1033380008000130F2007208F3070130F200720849
:10334800F407992921001508C0391F3895007F30E6
:10335800200095007F30F20072082200EF000B1168
:103368008B1608002000A500A401251CBF2977089A
:10337800F8007808A4070310F70D0310A50C25081A
:10338800031DB929240808002000911001302200EB
:10339800BE070030BF3D00303F02643003193E02D3
:1033A800031C08009831E6202200BE01BF01080076
:1033B800F50122000F1299319721993121000F163A
:1033C800003020000F1A0130F50021000F122200F2
:1033D8000F169931972108000B1122006F08200061
:1033E800950001302200BC070030BD3D00303D0291
:1033F8001F3003193C02031C08009831E220220008
:10340800BC01BD010800F5007508F400F40DF40DC9
:1034180021001D087406833974069D001D140630AA
:10342800F400F40B152A000021009D149D181A2A97
:103438001C08F3001B08F20008000134603417343C
:1034480020341634013426341234343456340134DA
:10345800113402342234033433340434443405340C
:103468005534063466340734773408348834F60122
:10347800F701721C432A7408F6077508F73D0130F6
:10348800F435F50D890B442A0130F336F20C890B1B
:10349800492A72087304031D3D2A7708F300760849
:1034A800F2000800210091121112483023009F00F9
:1034B80090309D0026309E00A0309B0001309C007B
:1034C8002100EC01ED010830F20072082200EE0044
:1034D8002100EA01EB01E90191160800F300F4016B
:1034E800730823009100720893009513151315159E
:1034F80000308B1B0130F4008B1355309600AA3036
:10350800960095149518862A15117408031D8B17B3
:1035180003198B130800F80074087807F50075087C
:1035280086000230870001089B31AE239A31F600ED
:103538000430F635890B9D2A74087807F700770A56
:1035480086000230870001089B31AE237607080009
:10355800F401F501F401F501003075023C3003195E
:1035680074020318C62A2D309B3166239A31013024
:10357800F4070030F53D003075023C300319740241
:10358800031CB72A99311C210800F9000F3079056E
:103598002000A6000A30A7002708F7007908A8002D
:1035A800A9012808F4002908F5001030F2000030BD
:1035B800F3009F315B279A3172089931B6212000B8
:1035C80026070800083409340A340B340C340D3447
:1035D8000E340F3400340134023403340434053417
:1035E8000634073400340134003400340034013424
:1035F8000034003400340134003400340134013420
:10360800003423009D1C0A2B1D121D162200CE011A
:10361800CE0A23001908F00021006A08A03E86009F
:1036280001308700700881000130F0007008EA0757
:1036380008306A020318EA010130F0007008E9074F
:103648000800083022006E020318422B21006D0882
:10365800303E860001308700010823009A000130BF
:10366800F00070082100ED0708306D020318ED0125
:103678000130F00070082200EE0708002100111246
:10368800080099310A219B319D3185259B319A315A
:1036980056229B3199313F219B319831FF209B3134
:1036A8009831EA209B31993160219B319931A621CB
:1036B8009B319831EE209B319831F2209B31983123
:1036C800F6200800F30022006E080319672B21007A
:1036D800111A722B730823009A00872B1112730892
:1036E800F2006C08303E86000130870072088100C5
:1036F8000130F2007208EC0708306C020318EC0184
:1037080001302200EE022100111608002000A0015D
:10371800A1017408200784007508213D8500000870
:10372800F7007708A2000130A0070030A13D24303F
:1037380022060319A32B22089B3166239B312430D0
:1037480020002206031D8D2B7603031D08009931E6
:103758001C210800F30030307302031CBA2B3A30E6
:1037680073020318BA2B7308D03ECF2B6130730253
:10377800031CC52B673073020318C52B7308A93EB9
:10378800CF2B41307302031CD22B4730730203182E
:10379800D22B7308C93EF2007208F30073080800C0
:1037A800F601F701083077020318F82B0310F60C1E
:1037B80022000F12803102209B3122000F162100B7
:1037C8000F16803102209B3120000F1AF61799310D
:1037D80088219B3121000F120130F5007508F70789
:1037E80008307702031CDB2B760808007208730484
:1037F8000319212CF701F70AF31B0C2C0130F235C1
:10380800F30D890B032C0130F6007608F707002C1E
:1038180073087502031D122C72087402031C182CFD
:103828007208F4027308F53B0130F336F20C890B89
:10383800192C0130F702031D0C2C7508F3007408CD
:10384800F200080099311C219C319A31AC229C313C
:10385800AE30F4009030F500F601F60A9B318A2369
:103868009C31CD30F4009130F500F601F60A9B3119
:103878008A239C319331EA239C315D308831902032
:103888009C31943149249C318730F4009230F50002
:10389800F601F60A9B318A239C319A31AC22080042
:1038A800F600F701083077020318802C22000F1267
:1038B800803102209C31761C6C2C22000F12803142
:1038C80002209C3122000F16993188219C31762CD8
:1038D80022000F12993188219C3122000F16803165
:1038E80002209C310310F60C0130F5007508F7072B
:1038F80008307702031C5A2C8031022008001F343C
:1039080000341C3400341F3400341E3400341F3497
:1039180000341E3400341F3400341F3400341E3485
:1039280000341F3400341E3400341F3400341F3474
:1039380000341C3400341F3400341E3400341F3467
:1039480000341E3400341F3400341F3400341E3455
:1039580000341F3400341E3400341F340034003067
:103968002000A3000030A2000030A1000030A00019
:10397800721CC72C76082000A0077708A13D78089C
:10398800A23D7908A33D0130F635F70DF80DF90D84
:10399800890BC82C0130F536F40CF30CF20C890BAA
:1039A800CF2C7508740473047204031DBC2C20000A
:1039B8002308F5002208F4002108F3002008F2008B
:1039C8000800F701F801720873040319142DF901AE
:1039D800F90AF31BF92C0130F235F30D890BF02CA1
:1039E8000130F6007608F907ED2C0130F735F80DAF
:1039F800890BFA2C73087502031D042D72087402D2
:103A0800031C0B2D7208F4027308F53B7714013080
:103A1800F336F20C890B0C2D0130F902031DF92C39
:103A28007808F3007708F20008002000A900A70131
:103A3800A8010A30F2000030F3002908A400A5010B
:103A48002408F4002508F5009F315B279D31720892
:103A58002000A6002608A7000A30F2000030F30074
:103A68002908A400A5012408F4002508F5009E31C2
:103A7800C8269D3172082000A6002608A80027083D
:103A8800A4000330A435FF3E031D462D2435280726
:103A9800080038308600023087002030840000306B
:103AA80085001830F40016001A00F40B572D20007A
:103AB800B801B901BA01720873040319802DBA015B
:103AC8003A08F400F50173087502031D6D2D72089C
:103AD80074020318802D3A35203E86008701403F46
:103AE800F400413FF5007408B8077508B93D013086
:103AF800F4007408BA07642D3908F3003808F20096
:103B08000800103022008C00293021008C002B3056
:103B180023008C0024008C0122008D011D3021001F
:103B28008D001F3023008D0024008D0118302200E5
:103B38008E00C03021008E0023008E0124008E01EB
:103B480022008F01253021008F00073023008F00CD
:103B580024008F01220090010830210090002300EA
:103B68009001240090012100951722009D019C01DD
:103B78000800F3000930F2007208F400F501F50AB4
:103B88000130F4020319DF2D9831DC209D31F31F39
:103B9800D02D22000E16D22D22000E129831DC20D4
:103BA8009D3122008E15993104219D310310F30DAA
:103BB80022008E11C42D9831DC209D3122000E1672
:103BC80021000E169831DC209D3122008E15993186
:103BD80004219D31003020000E1A0130F50021002B
:103BE8000E129831DC2022008E1175080800750825
:103BF8007404730472040319352E2000A101A10A6C
:103C0800F51B122E0130F235F30DF40DF50D890B6D
:103C1800072E0130A0002008A107042E750879029C
:103C2800031D202E74087802031D202E73087702C6
:103C3800031D202E72087602031C2A2E7208F60233
:103C48007308F73B7408F83B7508F93B0130F53603
:103C5800F40CF30CF20C890B2B2E0130A102031D7E
:103C6800122E7908F5007808F4007708F300760832
:103C7800F20008002000A5000A30A0002008A300D8
:103C8800A601A401A40AA20101302000A30203197D
:103C9800080099316C219E31780801389D31BD2585
:103CA8009E31003A031D482E20002608013EA00040
:103CB800003003180130A100770820062104031DF5
:103CC800682EA401A40A692EA4012408933139237B
:103CD8009E312000A00026082507A10021088600A3
:103CE80001308700200881000130A0002008A607C5
:103CF80077082602031C582E9931792108000A30CA
:103D08002000A0002008A300A501A40199316C217E
:103D18009E317908FE399D31BD259E31003A031D3B
:103D2800972E0130982E00302000A0002008A50012
:103D380025080319BB2E2408A000A1012008760736
:103D480086002108773D870001089D31BD259E31F9
:103D58002000A2002208A5000130A0002008A40726
:103D68002508031DBB2E78082402031C9F2E9931B9
:103D780079219E3101302000A3022308031908008D
:103D88002503031D08008A2EF801F51FD22EF40919
:103D9800F509F40A0319F50AF801F80AF31FD92EF0
:103DA800F209F309F20A0319F30A720873040319F2
:103DB800002FF701F70AF31BEB2E0130F235F30D54
:103DC800890BE22E0130F6007608F707DF2E73081C
:103DD8007502031DF12E72087402031CF72E720877
:103DE800F4027308F53B0130F336F20C890BF82E18
:103DF8000130F702031DEB2E78080319082FF40988
:103E0800F509F40A0319F50A7508F3007408F200B5
:103E180008002000A4004130F8007808A500103000
:103E2800F2000030F3002408F800F9017808F400E3
:103E38007908F5009F315B279F3173082000A700A0
:103E48007208A600003027020A3003192602031C54
:103E5800302F2608373E322F2608303EF8007808E3
:103E6800A50025089B3166239F31200024080F39BF
:103E7800F800F9017808A6007908A70000302702A1
:103E88000A3003192602031C4C2F2608373E4E2FF2
:103E98002608303EF8007808A50025089B316623DF
:103EA8009F317703031D080099311C210800200069
:103EB800A101F31F662FF209F309F20A0319F30AA5
:103EC800A101A10AF51F712FF409F509F40A0319D4
:103ED800F50A0130F6007608A106A201A3017208CE
:103EE80073040319A02FA001A00AF31B852F01302A
:103EF800F235F30D890B7C2F0130F6007608A00708
:103F0800792F0130A235A30D890B862F730875020E
:103F1800031D902F72087402031C972F7208F40275
:103F28007308F53B22140130F336F20C890B982FF5
:103F38000130A002031D852F21080319A82FA2090B
:103F4800A309A20A0319A30A2308F3002208F2000E
:103F5800080000302000A4000030A3000030A200B8
:103F68000030A10075087404730472040319F72F54
:103F7800A501A50AF51BCC2F0130F235F30DF40D80
:103F8800F50D890BC12F0130A0002008A507BE2F11
:103F98000130A135A20DA30DA40D890BCD2F7508F5
:103FA8007902031DE12F74087802031DE12F7308BD
:103FB8007702031DE12F72087602031CEC2F7208AA
:103FC800F6027308F73B7408F83B7508F93B2114AF
:103FD8000130F536F40CF30CF20C890BED2F01309F
:103FE800A502031DCC2F2408F5002308F40022089D
:083FF800F3002108F2000800AB
:020000040001F9
:04000E00E4FFFFDF2D
:00000001FF
